S214006000D818FBC230A912441BF40D00208862C2C7
S214006010307A20CE6220E562F4526620A762C23053
S2140060207A20F762F45D6620A762C2307A20486361
S214006030080BF400002B00EA2B2880F48861B0637C
S214006040356636663E66C2303B0B5BA5054820A328
S214006050657A1A48209761C230A87B38E902001B8F
S2140060602B9860C2303B0B5BA603B510290F00C50A
S21400607002D00D9BC230A6019420B51005089510DD
S214006080C230A87B38E902001B2B9860C2303B0B5D
S2140060905BC230A601B514F015A50748A50548A5AE
S2140060A00348A50148FC1400C2307A7A7A7AC230D6
S2140060B0A87B38E902001B2B9860C2303B0B5BC202
S2140060C030A601B514F015A50748A50548A5034850
S2140060D0A50148FC1600C2307A7A7A7AC230A87BCC
S2140060E038E902001B2B9860C2303B0B5BC230A61F
S2140060F001B514F019E220A50548A50348C220A55D
S2140061000148FC1800C2307AE2107A7AC210C23017
S214006110A87B38E902001B2B9860C2303B0B5BC2A1
S21400612030A601B514F009A50148FC1A00C2307A61
S214006130C230A87B38E902001B2B9860C2303B0BAC
S2140061405BC230A601B51CF00DA50348A50148FCAE
S2140061501400C2307A7AC230A87B38E902001B2BC2
S2140061609860C2303B0B5BC230A601B514F00DA59B
S2140061700348A50148FC1E00C2307A7AC230A87BCC
S21400618038E902001B2B9860C230A21344A9FA0F0C
S21400619095007404740260C2303B0B5BC230A503EA
S2140061A0A213444CB261BC0400C00000D0034C00F3
S2140061B062BBBC0200D0EFDD0000F002B0E8186958
S2140061C00E00DD0000F002B02B8A18690600186584
S2140061D003A8BD000038E9060038E503990000A5CD
S2140061E0039D0000BD0400990400989D0400A900CA
S2140061F000990200A901009D02008A18690600A8FD
S21400620098C230A87B38E902001B2B9860C2303B4E
S2140062100B5BA50338E90600AA9E0200C230A87BE5
S21400622038E902001B2B9860C230F42200209761E8
S214006230C2307AC90000F023AAE2207400C220A966
S214006240020095107412741474167418741AAD5CE7
S21400625062951CAD7262951E74208A60C2303B0B3C
S2140062605BC220A90000C230A87B38E902001B2BC5
S2140062709860C2303B0B5BC220A90000C230A87BEE
S21400628038E902001B2B9860C2303B0B5BA503E28B
S214006290200BF400002B224BE0002BC230A87B38EA
S2140062A0E902001B2B9860C2303B0B5BC210E22059
S2140062B0A900A6030BF400002B224EE0002266E0A5
S2140062C0002BC230A87B38E902001B2B9860C23036
S2140062D0A91300F00F9C00403AF0093AA200409B38
S2140062E0C854000060C230A90000F00A3AA2466016
S2140062F0A0004054000060C230A90200F012A900BD
S21400630000480AAAFC3C60C230681AC90200D0F1F4
S21400631060C230A90000F012A90000480AAAFC409A
S21400632060C23068E8E00000D0F160C230A95C00CE
S214006330A000009303A305A00100930360F4706619
S21400634020A762C2307A80F5C230F4E463F42001FC
S214006350202B637A7AF4F065F40C01202B637A7AAA
S214006360E220AD43DF29FB8D43DFA9048D44DFAD7A
S21400637046DF09048D46DFA9008D64DFA95A8D65C6
S214006380DF9C27DFAD43DF09048D43DF209D64F4E7
S2140063903D63F4FF7F48205764C230FA7A7AA90139
S2140063A0009D0E00F4766620A762C2307A4CA46385
S2140063B0C230F41200209761C2307A8D02408D0000
S2140063C040AA9D1000A900009D0C00A901009D0E8A
S2140063D00060C230AE0040BD1000AABD0E00F0F74F
S2140063E08E00406018FB08C230DA488BA900005BBC
S2140063F0AE0040E220689D0200C220689D00006852
S2140064009D0700989D0900E220689D0B00C2207B36
S2140064109D03003B9D0500E220A9048D44DF58AD96
S21400642023DF1A8D23DF20D263AE0040C220BD05D5
S214006430001BBD03005BE220BD0B0048C220BC0968
S21400644000BD070048BD000048E220BD020048AB82
S214006450C23068FA28FB40C2303B0B5BC230A60352
S2140064609E00009E03009E07009E0900E2209E02FA
S214006470009E0B00C220A605CACACACAE2209E0118
S214006480009E0400C220A5079D02008AA6039D0563
S21400649000C230A87B38E902001B2B9860E220ADD2
S2140064A0124048A9008D1240C230A20000BD024032
S2140064B0F012E8E8E41090F5E220688D1240C23051
S2140064C0A9000060DAF41200209761C230FAFAC917
S2140064D00000F0E4DAC230AE0040BC1000AA684A01
S2140064E09D0C009E0E00989D10008AAE00409D10E8
S2140064F000E210FA8E1240C23060C2303B0B5BE204
S21400650020AD124048A9008D1240C230A603BD102F
S21400651000C503F004AA4C0E65C230A87B38E90219
S214006520001B2B9860C2303B0B5BE220AD1240484C
S214006530A9008D1240C230A5030AAABD0240AAA92E
S21400654000009D0E00BD100048DA20FA64AAC23092
S214006550A3039D1000FA7ADAA5030AAAA900009DF3
S2140065600240200D62C23068E220688D1240C230C0
S214006570C230A87B38E902001B2B9860C2303B0B68
S2140065805BE220C210A403A6058002E8C8BD000096
S214006590990000D0F6A503C230A87B38E902001B9C
S2140065A02B9860C2303B0B5BC210E220A00000A616
S2140065B0038002E8C8BD0000D0F9C23098C230A8F7
S2140065C07B38E902001B2B9860C2303B0B5BC23065
S2140065D0A20000B50338F505D007B403F003E88041
S2140065E0F2C230A87B38E902001B2B98600000013D
S2140065F018FBB03929FFF034CD0300F002B02DE2CD
S2140066002048C2303B5BAABDED65F013483B1AA894
S21400661018690500186301AA683A440000981BA58B
S214006620030AAAFC4060AA7B1B688A4040A9FF00B8
S214006630A2FF00FB4060C230AE0040B50C60C23026
S2140066403B0B5B2263E000C230A87B38E902001BEC
S2140066502B985345545550204441544100494E49C7
S2140066605449414C495A45442053595354454D00CA
S2140066705445535431005445535430000000000034
S2140066800000000000000000000000000000000005
S21400669000000000000000000000000000000000F5
S2140066A000000000000000000000000000000000E5
S2140066B000000000000000000000000000000000D5
S2140066C000000000000000000000000000000000C5
S2140066D000000000000000000000000000000000B5
S2140066E000000000000000000000000000000000A5
S2140066F00000000000000000000000000000000095
S804000000FB
