S214006000D818FBC230A912441BF40D00208762C2C8
S214006010307A20CD6220E462F4E06520A662C230C9
S2140060207A20F662F4EB6520A662C2307A203C63E2
S214006030080BF400002B00EA2B2880F488618263AA
S214006040C365C465CC65C2303B0B5BA505482031F3
S214006050657A1A48209761C230A87B38E902001B8F
S2140060602B9860C2303B0B5BA603B510290F00C50A
S21400607002D00D9BC230A6019420B51005089510DD
S214006080C230A87B38E902001B2B9860C2303B0B5D
S2140060905BC230A601B514F015A50748A50548A5AE
S2140060A00348A50148FC1400C2307A7A7A7AC230D6
S2140060B0A87B38E902001B2B9860C2303B0B5BC202
S2140060C030A601B514F015A50748A50548A5034850
S2140060D0A50148FC1600C2307A7A7A7AC230A87BCC
S2140060E038E902001B2B9860C2303B0B5BC230A61F
S2140060F001B514F019E220A50548A50348C220A55D
S2140061000148FC1800C2307AE2107A7AC210C23017
S214006110A87B38E902001B2B9860C2303B0B5BC2A1
S21400612030A601B514F009A50148FC1A00C2307A61
S214006130C230A87B38E902001B2B9860C2303B0BAC
S2140061405BC230A601B51CF00DA50348A50148FCAE
S2140061501400C2307A7AC230A87B38E902001B2BC2
S2140061609860C2303B0B5BC230A601B514F00DA59B
S2140061700348A50148FC1E00C2307A7AC230A87BCC
S21400618038E902001B2B9860C230A21344A9FA0F0C
S21400619095007404740260C2303B0B5BC230A503EA
S2140061A0A213444CB161B404C00000D0034CFF619C
S2140061B0BBBC0200D0F0DD0000F002B0E918690EAA
S2140061C000DD0000F002B02B8A186906001865038F
S2140061D0A8BD000038E9060038E503990000A503CD
S2140061E09D0000BD0400990400989D0400A90000CD
S2140061F0990200A901009D02008A18690600A89865
S214006200C230A87B38E902001B2B9860C2303B0BDB
S2140062105BA50338E90600AA9E0200C230A87B38B8
S214006220E902001B2B9860C230F42200209761C25E
S214006230307AC90000F023AAE2207400C220A90226
S2140062400095107412741474167418741AAD5B6288
S214006250951CAD7162951E74208A60C2303B0B5B44
S214006260C220A90000C230A87B38E902001B2B9888
S21400627060C2303B0B5BC220A90000C230A87B384E
S214006280E902001B2B9860C2303B0B5BA503E220A3
S2140062900BF400002B224BE0002BC230A87B38E921
S2140062A002001B2B9860C2303B0B5BC210E220A999
S2140062B000A6030BF400002B224EE0002266E0004E
S2140062C02BC230A87B38E902001B2B9860C230A98D
S2140062D01300F00F9C00403AF0093AA200409BC819
S2140062E054000060C230A90000F00A3AA24660A03E
S2140062F0004054000060C230A90200F012A900005D
S214006300480AAAFC3C60C230681AC90200D0F16094
S214006310C230A90000F012A90000480AAAFC40609A
S214006320C23068E8E00000D0F160C230A95C00A08E
S21400633000009303A305A00100930360C230F4B6E7
S21400634063F42001202A637A7AE220AD43DF29FB3A
S2140063508D43DFA9048D44DFAD46DF09048D46DF9B
S214006360A9008D64DFA9408D65DF9C27DFAD43DF84
S21400637009048D43DF080BF400002B00EA2B284CA1
S2140063807563C230F41200209761C2307A8D0240E5
S2140063908D0040AA9D1000A900009D0C00A90100D8
S2140063A09D0E0060C230AE0040BD1000AABD0E00BB
S2140063B0F0F78E00406018FB08C230DA488BA90060
S2140063C0005BAE0040E220689D0200C220689D008F
S2140063D000689D0700989D0900E220689D0B00C29A
S2140063E0207B9D03003B9D0500E220A9048D44DF31
S2140063F058AD23DF1A8D23DF20A463AE0040C220F1
S214006400BD05001BBD03005BE220BD0B0048C2209B
S214006410BC0900BD070048BD000048E220BD0200E0
S21400642048ABC23068FA28FB40E230AD124048A9BB
S214006430008D1240A200BD0240F012E8E8E4109081
S214006440F5E220688D1240C230A9000060F4120008
S214006450209761C2307AC90000F0E6C230AE004034
S214006460BC1000AA38E902404A9D0C0068A900004A
S2140064709D0E00989D10008AAE00409D1000AAE276
S21400648020688D1240C230BD0C0060C2303B0B5BF2
S214006490E220AD124048A9008D1240C230A603BDCE
S2140064A01000C503F004AA4C9F64C230A87B38E9EC
S2140064B002001B2B9860C2303B0B5BE220688D12FB
S2140064C040C230C230A5030AAABD0240AAA90000F5
S2140064D09D0E00BD100048DA208B64AAC230A303CC
S2140064E09D1000FA7ADAA5030AAAA900009D0240C8
S2140064F0200C62C23068E220688D1240C230C23082
S214006500A87B38E902001B2B9860C2303B0B5BE28D
S21400651020C210A403A6058002E8C8BD00009900AA
S21400652000D0F6A503C230A87B38E902001B2B98E2
S21400653060C2303B0B5BC210E220A00000A60380C6
S21400654002E8C8BD0000D0F9C23098C230A87B3837
S214006550E902001B2B9860C2303B0B5BC230A200E6
S21400656000B50338F505D007B403F003E880F2C29F
S21400657030A87B38E902001B2B986000000118FB4E
S214006580B03929FFF034CD0300F002B02DE22048E8
S214006590C2303B5BAABD7B65F013483B1AA818695E
S2140065A00500186301AA683A440000981BA5030A70
S2140065B0AAFC4060AA7B1B688A4040A9FF00A2FF95
S2140065C000FB4060C230AE0040B50C60C2303B0BF2
S2140065D05B2263E000C230A87B38E902001B2B98E0
S2140065E05345545550204441544100494E4954495E
S2140065F0414C495A45442053595354454D000000D8
S2140066000000000000000000000000000000000085
S2140066100000000000000000000000000000000075
S2140066200000000000000000000000000000000065
S2140066300000000000000000000000000000000055
S2140066400000000000000000000000000000000045
S804000000FB
