S214006000D818FBC230A925441B20C56220DC6220BC
S214006010EE62F49E65209E62C2307A000080FC7EAE
S214006020615263816582658A65494E495449414C8F
S214006030495A45442053595354454D00C2303B0BF2
S2140060405BA5054820EF647A1A48209461C230A800
S2140060507B38E902001B2B9860C2303B0B5BA60323
S214006060B510290F00C502D00D9BC230A6019420A2
S214006070B51005089510C230A87B38E902001B2B26
S2140060809860C2303B0B5BC230A601B514F015A574
S2140060900748A50548A50348A50148FC1400C230DA
S2140060A07A7A7A7AC230A87B38E902001B2B98608D
S2140060B0C2303B0B5BC230A601B514F015A50748ED
S2140060C0A50548A50348A50148FC1600C2307A7A03
S2140060D07A7AC230A87B38E902001B2B9860C2305F
S2140060E03B0B5BC230A601B514F019E220A50548AB
S2140060F0A50348C220A50148FC1800C2307AE21069
S2140061007A7AC210C230A87B38E902001B2B98604E
S214006110C2303B0B5BC230A601B514F009A501489E
S214006120FC1A00C2307AC230A87B38E902001B2B6A
S2140061309860C2303B0B5BC230A601B51CF00DA5C3
S2140061400348A50148FC1400C2307A7AC230A87B06
S21400615038E902001B2B9860C2303B0B5BC230A6AE
S21400616001B514F00DA50348A50148FC1E00C23079
S2140061707A7AC230A87B38E902001B2B9860C230BE
S214006180A22644A9FB0F9500A900009503E22095DE
S21400619002C22060C2303B0B5BC230A503A226447D
S2140061A04CAB61B403C00000F04EBBB402D0F4D5D3
S2140061B000F002B0EE18690D00DD0000F002B02A13
S2140061C0488A18690500186301A8B50038E9050073
S2140061D038E301990000689D0000BD0300990300A4
S2140061E0989D0300A90000990200E220A9019D02E3
S2140061F000C2208A18690500C230A87B38E9020070
S2140062001B2B9860C2303B0B5BA50338E90500AA40
S2140062109E0200C230A87B38E902001B2B9860C2A1
S21400622030F42200209461C2307AC90000F023AA1C
S214006230E2207400C220A90200951074127414742F
S214006240167418741AAD5362951CAD6962951E7467
S214006250208A60C2303B0B5BC220A90000C230A877
S2140062607B38E902001B2B9860C2303B0B5BC220D8
S214006270A90000C230A87B38E902001B2B9860C238
S214006280303B0B5BA503E2200BF400002B224BE017
S214006290002BC230A87B38E902001B2B9860C23066
S2140062A03B0B5BC210E220A900A6030BF400002BF8
S2140062B0224EE0002266E0002BC230A87B38E902BE
S2140062C0001B2B9860C230A91300F00F9C13403AB5
S2140062D0F0093AA213409BC854000060C230A913CC
S2140062E000F00A3AA22960A0004054000060C230C4
S2140062F0A90200F019A90000480BF400002B002B9F
S2140063000AAAFC1F60C210681AC90200D0EA60C25E
S21400631030A20000F00EA20000DAFC2360FAE8E0EB
S2140063200000D0F560C230A94C00A000009303A383
S21400633005A00100930360C230F49163F4200120AD
S21400634025637A7AF43C65F40C012025637A7A4C4E
S2140063504F63C2300BF400002B002BF42000209477
S214006360618D15408D1340AA9D1E00A900009D1C3E
S21400637000A901009D1D000BF400002B002B60C23D
S21400638030AE1340BD1E00AABD1D00F0F78E1340B0
S2140063906018FB08C230DA488BA900005BAE1340D9
S2140063A0E220689502C2206895006895079409E285
S2140063B02068950BC2207B95033B9505207F63AE36
S2140063C01340C220B5051BB5035BB50B48C220B40D
S2140063D009B50748B50048E220B50248ABC23068A8
S2140063E0FA28FB40E220AD254048A9008D2540C292
S2140063F030A20000BD1540F012E8E8E41090F5E287
S21400640020688D2540C230A9000060F4200020944A
S21400641061C2307AC90000F0E6C230AE1340BC1E3E
S21400642000AA38E915404A9D1C0068A900009D1D79
S21400643000989D1E008AAE13409D1E00AAE22068AA
S2140064408D2540C230BD1C0060C2303B0B5BE22095
S214006450AD254048A9008D2540C230A603BD1E00CC
S214006460C503F004AA4C5D64C230A87B38E902007C
S2140064701B2B9860C2303B0B5BE220688D2540C228
S21400648030C230A5030AAABD1540AAA900009D1D6A
S21400649000BD1E0048DA204964AAC230A3039D1E30
S2140064A000FA7ADAA5030AAAA900009D154020047E
S2140064B062C23068E220688D2540C230C230A87BB8
S2140064C038E902001B2B9860C2303B0B5BE220C20F
S2140064D010A403A6058002E8C8BD0000990000D0FD
S2140064E0F6A503C230A87B38E902001B2B9860C2D1
S2140064F0303B0B5BC210E220A00000A6038002E83F
S214006500C8BD0000D0F9C23098C230A87B38E90276
S214006510001B2B9860C2303B0B5BC230A20000B55C
S2140065200338F505D007B403F003E880F2C230A8BC
S2140065307B38E902001B2B986000000118FBB0397D
S21400654029FFF034CD0300F002B02DE22048C2301F
S2140065503B5BAABD3965F013483B1AA818690500CD
S214006560186301AA683A440000981BA5030AAAFC0F
S2140065702360AA7B1B688A4040A9FF00A2FF00FB9D
S2140065804060C230AE1340B51C60C2303B0B5B228D
S21400659063E000C230A87B38E902001B2B980D4947
S2140065A04E495449414C495A454420535953544541
S2140065B04D00000000000000000000000000000089
S2140065C000000000000000000000000000000000C6
S2140065D000000000000000000000000000000000B6
S2140065E000000000000000000000000000000000A6
S2140065F00000000000000000000000000000000096
S2140066000000000000000000000000000000000085
S2140066100000000000000000000000000000000075
S2140066200000000000000000000000000000000065
S2140066300000000000000000000000000000000055
S2140066400000000000000000000000000000000045
S804000000FB
